{
  "_format": "hh-sol-artifact-1",
  "contractName": "TicketPlatform",
  "sourceName": "contracts/TicketPlatform.sol",
  "abi": [
    {
      "inputs": [],
      "stateMutability": "nonpayable",
      "type": "constructor"
    },
    {
      "inputs": [],
      "name": "ERC721EnumerableForbiddenBatchMint",
      "type": "error"
    },
    {
      "inputs": [
        {
          "internalType": "address",
          "name": "sender",
          "type": "address"
        },
        {
          "internalType": "uint256",
          "name": "tokenId",
          "type": "uint256"
        },
        {
          "internalType": "address",
          "name": "owner",
          "type": "address"
        }
      ],
      "name": "ERC721IncorrectOwner",
      "type": "error"
    },
    {
      "inputs": [
        {
          "internalType": "address",
          "name": "operator",
          "type": "address"
        },
        {
          "internalType": "uint256",
          "name": "tokenId",
          "type": "uint256"
        }
      ],
      "name": "ERC721InsufficientApproval",
      "type": "error"
    },
    {
      "inputs": [
        {
          "internalType": "address",
          "name": "approver",
          "type": "address"
        }
      ],
      "name": "ERC721InvalidApprover",
      "type": "error"
    },
    {
      "inputs": [
        {
          "internalType": "address",
          "name": "operator",
          "type": "address"
        }
      ],
      "name": "ERC721InvalidOperator",
      "type": "error"
    },
    {
      "inputs": [
        {
          "internalType": "address",
          "name": "owner",
          "type": "address"
        }
      ],
      "name": "ERC721InvalidOwner",
      "type": "error"
    },
    {
      "inputs": [
        {
          "internalType": "address",
          "name": "receiver",
          "type": "address"
        }
      ],
      "name": "ERC721InvalidReceiver",
      "type": "error"
    },
    {
      "inputs": [
        {
          "internalType": "address",
          "name": "sender",
          "type": "address"
        }
      ],
      "name": "ERC721InvalidSender",
      "type": "error"
    },
    {
      "inputs": [
        {
          "internalType": "uint256",
          "name": "tokenId",
          "type": "uint256"
        }
      ],
      "name": "ERC721NonexistentToken",
      "type": "error"
    },
    {
      "inputs": [
        {
          "internalType": "address",
          "name": "owner",
          "type": "address"
        },
        {
          "internalType": "uint256",
          "name": "index",
          "type": "uint256"
        }
      ],
      "name": "ERC721OutOfBoundsIndex",
      "type": "error"
    },
    {
      "inputs": [
        {
          "internalType": "address",
          "name": "owner",
          "type": "address"
        }
      ],
      "name": "OwnableInvalidOwner",
      "type": "error"
    },
    {
      "inputs": [
        {
          "internalType": "address",
          "name": "account",
          "type": "address"
        }
      ],
      "name": "OwnableUnauthorizedAccount",
      "type": "error"
    },
    {
      "inputs": [],
      "name": "ReentrancyGuardReentrantCall",
      "type": "error"
    },
    {
      "anonymous": false,
      "inputs": [
        {
          "indexed": true,
          "internalType": "address",
          "name": "owner",
          "type": "address"
        },
        {
          "indexed": true,
          "internalType": "address",
          "name": "approved",
          "type": "address"
        },
        {
          "indexed": true,
          "internalType": "uint256",
          "name": "tokenId",
          "type": "uint256"
        }
      ],
      "name": "Approval",
      "type": "event"
    },
    {
      "anonymous": false,
      "inputs": [
        {
          "indexed": true,
          "internalType": "address",
          "name": "owner",
          "type": "address"
        },
        {
          "indexed": true,
          "internalType": "address",
          "name": "operator",
          "type": "address"
        },
        {
          "indexed": false,
          "internalType": "bool",
          "name": "approved",
          "type": "bool"
        }
      ],
      "name": "ApprovalForAll",
      "type": "event"
    },
    {
      "anonymous": false,
      "inputs": [
        {
          "indexed": true,
          "internalType": "uint256",
          "name": "eventId",
          "type": "uint256"
        },
        {
          "indexed": false,
          "internalType": "string",
          "name": "name",
          "type": "string"
        },
        {
          "indexed": false,
          "internalType": "uint256",
          "name": "date",
          "type": "uint256"
        },
        {
          "indexed": false,
          "internalType": "uint256",
          "name": "ticketCount",
          "type": "uint256"
        },
        {
          "indexed": false,
          "internalType": "uint256",
          "name": "ticketPrice",
          "type": "uint256"
        }
      ],
      "name": "EventCreated",
      "type": "event"
    },
    {
      "anonymous": false,
      "inputs": [
        {
          "indexed": true,
          "internalType": "uint256",
          "name": "eventId",
          "type": "uint256"
        },
        {
          "indexed": true,
          "internalType": "address",
          "name": "organizer",
          "type": "address"
        },
        {
          "indexed": false,
          "internalType": "uint256",
          "name": "amount",
          "type": "uint256"
        }
      ],
      "name": "FundsWithdrawn",
      "type": "event"
    },
    {
      "anonymous": false,
      "inputs": [
        {
          "indexed": true,
          "internalType": "address",
          "name": "previousOwner",
          "type": "address"
        },
        {
          "indexed": true,
          "internalType": "address",
          "name": "newOwner",
          "type": "address"
        }
      ],
      "name": "OwnershipTransferred",
      "type": "event"
    },
    {
      "anonymous": false,
      "inputs": [
        {
          "indexed": true,
          "internalType": "uint256",
          "name": "eventId",
          "type": "uint256"
        },
        {
          "indexed": true,
          "internalType": "uint256",
          "name": "ticketId",
          "type": "uint256"
        },
        {
          "indexed": true,
          "internalType": "address",
          "name": "buyer",
          "type": "address"
        }
      ],
      "name": "TicketPurchased",
      "type": "event"
    },
    {
      "anonymous": false,
      "inputs": [
        {
          "indexed": true,
          "internalType": "address",
          "name": "from",
          "type": "address"
        },
        {
          "indexed": true,
          "internalType": "address",
          "name": "to",
          "type": "address"
        },
        {
          "indexed": true,
          "internalType": "uint256",
          "name": "tokenId",
          "type": "uint256"
        }
      ],
      "name": "Transfer",
      "type": "event"
    },
    {
      "inputs": [
        {
          "internalType": "address",
          "name": "to",
          "type": "address"
        },
        {
          "internalType": "uint256",
          "name": "tokenId",
          "type": "uint256"
        }
      ],
      "name": "approve",
      "outputs": [],
      "stateMutability": "nonpayable",
      "type": "function"
    },
    {
      "inputs": [
        {
          "internalType": "address",
          "name": "owner",
          "type": "address"
        }
      ],
      "name": "balanceOf",
      "outputs": [
        {
          "internalType": "uint256",
          "name": "",
          "type": "uint256"
        }
      ],
      "stateMutability": "view",
      "type": "function"
    },
    {
      "inputs": [
        {
          "internalType": "uint256",
          "name": "_eventId",
          "type": "uint256"
        }
      ],
      "name": "buyTicket",
      "outputs": [],
      "stateMutability": "payable",
      "type": "function"
    },
    {
      "inputs": [
        {
          "internalType": "string",
          "name": "_name",
          "type": "string"
        },
        {
          "internalType": "string",
          "name": "_description",
          "type": "string"
        },
        {
          "internalType": "uint256",
          "name": "_date",
          "type": "uint256"
        },
        {
          "internalType": "uint256",
          "name": "_ticketCount",
          "type": "uint256"
        },
        {
          "internalType": "uint256",
          "name": "_ticketPrice",
          "type": "uint256"
        }
      ],
      "name": "createEvent",
      "outputs": [],
      "stateMutability": "nonpayable",
      "type": "function"
    },
    {
      "inputs": [],
      "name": "eventCount",
      "outputs": [
        {
          "internalType": "uint256",
          "name": "",
          "type": "uint256"
        }
      ],
      "stateMutability": "view",
      "type": "function"
    },
    {
      "inputs": [
        {
          "internalType": "uint256",
          "name": "",
          "type": "uint256"
        }
      ],
      "name": "events",
      "outputs": [
        {
          "internalType": "uint256",
          "name": "id",
          "type": "uint256"
        },
        {
          "internalType": "string",
          "name": "name",
          "type": "string"
        },
        {
          "internalType": "string",
          "name": "description",
          "type": "string"
        },
        {
          "internalType": "uint256",
          "name": "date",
          "type": "uint256"
        },
        {
          "internalType": "address payable",
          "name": "organizer",
          "type": "address"
        },
        {
          "internalType": "uint256",
          "name": "ticketCount",
          "type": "uint256"
        },
        {
          "internalType": "uint256",
          "name": "ticketSold",
          "type": "uint256"
        },
        {
          "internalType": "uint256",
          "name": "ticketPrice",
          "type": "uint256"
        }
      ],
      "stateMutability": "view",
      "type": "function"
    },
    {
      "inputs": [
        {
          "internalType": "uint256",
          "name": "tokenId",
          "type": "uint256"
        }
      ],
      "name": "getApproved",
      "outputs": [
        {
          "internalType": "address",
          "name": "",
          "type": "address"
        }
      ],
      "stateMutability": "view",
      "type": "function"
    },
    {
      "inputs": [
        {
          "internalType": "uint256",
          "name": "_eventId",
          "type": "uint256"
        }
      ],
      "name": "getEventDetails",
      "outputs": [
        {
          "internalType": "string",
          "name": "name",
          "type": "string"
        },
        {
          "internalType": "string",
          "name": "description",
          "type": "string"
        },
        {
          "internalType": "uint256",
          "name": "date",
          "type": "uint256"
        },
        {
          "internalType": "address",
          "name": "organizer",
          "type": "address"
        },
        {
          "internalType": "uint256",
          "name": "ticketCount",
          "type": "uint256"
        },
        {
          "internalType": "uint256",
          "name": "ticketSold",
          "type": "uint256"
        },
        {
          "internalType": "uint256",
          "name": "ticketPrice",
          "type": "uint256"
        }
      ],
      "stateMutability": "view",
      "type": "function"
    },
    {
      "inputs": [
        {
          "internalType": "address",
          "name": "owner",
          "type": "address"
        },
        {
          "internalType": "address",
          "name": "operator",
          "type": "address"
        }
      ],
      "name": "isApprovedForAll",
      "outputs": [
        {
          "internalType": "bool",
          "name": "",
          "type": "bool"
        }
      ],
      "stateMutability": "view",
      "type": "function"
    },
    {
      "inputs": [],
      "name": "name",
      "outputs": [
        {
          "internalType": "string",
          "name": "",
          "type": "string"
        }
      ],
      "stateMutability": "view",
      "type": "function"
    },
    {
      "inputs": [],
      "name": "owner",
      "outputs": [
        {
          "internalType": "address",
          "name": "",
          "type": "address"
        }
      ],
      "stateMutability": "view",
      "type": "function"
    },
    {
      "inputs": [
        {
          "internalType": "uint256",
          "name": "tokenId",
          "type": "uint256"
        }
      ],
      "name": "ownerOf",
      "outputs": [
        {
          "internalType": "address",
          "name": "",
          "type": "address"
        }
      ],
      "stateMutability": "view",
      "type": "function"
    },
    {
      "inputs": [],
      "name": "renounceOwnership",
      "outputs": [],
      "stateMutability": "nonpayable",
      "type": "function"
    },
    {
      "inputs": [
        {
          "internalType": "address",
          "name": "from",
          "type": "address"
        },
        {
          "internalType": "address",
          "name": "to",
          "type": "address"
        },
        {
          "internalType": "uint256",
          "name": "tokenId",
          "type": "uint256"
        }
      ],
      "name": "safeTransferFrom",
      "outputs": [],
      "stateMutability": "nonpayable",
      "type": "function"
    },
    {
      "inputs": [
        {
          "internalType": "address",
          "name": "from",
          "type": "address"
        },
        {
          "internalType": "address",
          "name": "to",
          "type": "address"
        },
        {
          "internalType": "uint256",
          "name": "tokenId",
          "type": "uint256"
        },
        {
          "internalType": "bytes",
          "name": "data",
          "type": "bytes"
        }
      ],
      "name": "safeTransferFrom",
      "outputs": [],
      "stateMutability": "nonpayable",
      "type": "function"
    },
    {
      "inputs": [
        {
          "internalType": "address",
          "name": "operator",
          "type": "address"
        },
        {
          "internalType": "bool",
          "name": "approved",
          "type": "bool"
        }
      ],
      "name": "setApprovalForAll",
      "outputs": [],
      "stateMutability": "nonpayable",
      "type": "function"
    },
    {
      "inputs": [
        {
          "internalType": "bytes4",
          "name": "interfaceId",
          "type": "bytes4"
        }
      ],
      "name": "supportsInterface",
      "outputs": [
        {
          "internalType": "bool",
          "name": "",
          "type": "bool"
        }
      ],
      "stateMutability": "view",
      "type": "function"
    },
    {
      "inputs": [],
      "name": "symbol",
      "outputs": [
        {
          "internalType": "string",
          "name": "",
          "type": "string"
        }
      ],
      "stateMutability": "view",
      "type": "function"
    },
    {
      "inputs": [
        {
          "internalType": "uint256",
          "name": "",
          "type": "uint256"
        }
      ],
      "name": "ticketEvent",
      "outputs": [
        {
          "internalType": "uint256",
          "name": "",
          "type": "uint256"
        }
      ],
      "stateMutability": "view",
      "type": "function"
    },
    {
      "inputs": [
        {
          "internalType": "uint256",
          "name": "index",
          "type": "uint256"
        }
      ],
      "name": "tokenByIndex",
      "outputs": [
        {
          "internalType": "uint256",
          "name": "",
          "type": "uint256"
        }
      ],
      "stateMutability": "view",
      "type": "function"
    },
    {
      "inputs": [
        {
          "internalType": "address",
          "name": "owner",
          "type": "address"
        },
        {
          "internalType": "uint256",
          "name": "index",
          "type": "uint256"
        }
      ],
      "name": "tokenOfOwnerByIndex",
      "outputs": [
        {
          "internalType": "uint256",
          "name": "",
          "type": "uint256"
        }
      ],
      "stateMutability": "view",
      "type": "function"
    },
    {
      "inputs": [
        {
          "internalType": "uint256",
          "name": "tokenId",
          "type": "uint256"
        }
      ],
      "name": "tokenURI",
      "outputs": [
        {
          "internalType": "string",
          "name": "",
          "type": "string"
        }
      ],
      "stateMutability": "view",
      "type": "function"
    },
    {
      "inputs": [],
      "name": "totalSupply",
      "outputs": [
        {
          "internalType": "uint256",
          "name": "",
          "type": "uint256"
        }
      ],
      "stateMutability": "view",
      "type": "function"
    },
    {
      "inputs": [
        {
          "internalType": "address",
          "name": "from",
          "type": "address"
        },
        {
          "internalType": "address",
          "name": "to",
          "type": "address"
        },
        {
          "internalType": "uint256",
          "name": "tokenId",
          "type": "uint256"
        }
      ],
      "name": "transferFrom",
      "outputs": [],
      "stateMutability": "nonpayable",
      "type": "function"
    },
    {
      "inputs": [
        {
          "internalType": "address",
          "name": "newOwner",
          "type": "address"
        }
      ],
      "name": "transferOwnership",
      "outputs": [],
      "stateMutability": "nonpayable",
      "type": "function"
    },
    {
      "inputs": [
        {
          "internalType": "uint256",
          "name": "_eventId",
          "type": "uint256"
        }
      ],
      "name": "withdrawFunds",
      "outputs": [],
      "stateMutability": "nonpayable",
      "type": "function"
    }
  ],
  "bytecode": "0x608060405234801561001057600080fd5b50336040518060400160405280600b81526020017f4576656e745469636b65740000000000000000000000000000000000000000008152506040518060400160405280600381526020017f45544b0000000000000000000000000000000000000000000000000000000000815250816000908161008d9190610445565b50806001908161009d9190610445565b505050600073ffffffffffffffffffffffffffffffffffffffff168173ffffffffffffffffffffffffffffffffffffffff16036101125760006040517f1e4fbdf70000000000000000000000000000000000000000000000000000000081526004016101099190610558565b60405180910390fd5b6101218161012f60201b60201c565b506001600b81905550610573565b6000600a60009054906101000a900473ffffffffffffffffffffffffffffffffffffffff16905081600a60006101000a81548173ffffffffffffffffffffffffffffffffffffffff021916908373ffffffffffffffffffffffffffffffffffffffff1602179055508173ffffffffffffffffffffffffffffffffffffffff168173ffffffffffffffffffffffffffffffffffffffff167f8be0079c531659141344cd1fd0a4f28419497f9722a3daafe3b4186f6b6457e060405160405180910390a35050565b600081519050919050565b7f4e487b7100000000000000000000000000000000000000000000000000000000600052604160045260246000fd5b7f4e487b7100000000000000000000000000000000000000000000000000000000600052602260045260246000fd5b6000600282049050600182168061027657607f821691505b6020821081036102895761028861022f565b5b50919050565b60008190508160005260206000209050919050565b60006020601f8301049050919050565b600082821b905092915050565b6000600883026102f17fffffffffffffffffffffffffffffffffffffffffffffffffffffffffffffffff826102b4565b6102fb86836102b4565b95508019841693508086168417925050509392505050565b6000819050919050565b6000819050919050565b600061034261033d61033884610313565b61031d565b610313565b9050919050565b6000819050919050565b61035c83610327565b61037061036882610349565b8484546102c1565b825550505050565b600090565b610385610378565b610390818484610353565b505050565b5b818110156103b4576103a960008261037d565b600181019050610396565b5050565b601f8211156103f9576103ca8161028f565b6103d3846102a4565b810160208510156103e2578190505b6103f66103ee856102a4565b830182610395565b50505b505050565b600082821c905092915050565b600061041c600019846008026103fe565b1980831691505092915050565b6000610435838361040b565b9150826002028217905092915050565b61044e826101f5565b67ffffffffffffffff81111561046757610466610200565b5b610471825461025e565b61047c8282856103b8565b600060209050601f8311600181146104af576000841561049d578287015190505b6104a78582610429565b86555061050f565b601f1984166104bd8661028f565b60005b828110156104e5578489015182556001820191506020850194506020810190506104c0565b8683101561050257848901516104fe601f89168261040b565b8355505b6001600288020188555050505b505050505050565b600073ffffffffffffffffffffffffffffffffffffffff82169050919050565b600061054282610517565b9050919050565b61055281610537565b82525050565b600060208201905061056d6000830184610549565b92915050565b613ce8806105826000396000f3fe6080604052600436106101815760003560e01c806367dd74ca116100d1578063a22cb4651161008a578063c87b56dd11610064578063c87b56dd1461059e578063e985e9c5146105db578063ec38d5a014610618578063f2fde38b1461065b57610181565b8063a22cb4651461050f578063b88d4fde14610538578063c20b324d1461056157610181565b806367dd74ca1461041e57806370a082311461043a578063715018a61461047757806371be2e4a1461048e5780638da5cb5b146104b957806395d89b41146104e457610181565b806318160ddd1161013e5780633c2fc56c116101185780633c2fc56c1461035257806342842e0e1461037b5780634f6ccce7146103a45780636352211e146103e157610181565b806318160ddd146102c157806323b872dd146102ec5780632f745c591461031557610181565b806301ffc9a71461018657806306fdde03146101c3578063081812fc146101ee578063095ea7b31461022b5780630b79143014610254578063155dd5ee14610298575b600080fd5b34801561019257600080fd5b506101ad60048036038101906101a89190612a53565b610684565b6040516101ba9190612a9b565b60405180910390f35b3480156101cf57600080fd5b506101d86106fe565b6040516101e59190612b46565b60405180910390f35b3480156101fa57600080fd5b5061021560048036038101906102109190612b9e565b610790565b6040516102229190612c0c565b60405180910390f35b34801561023757600080fd5b50610252600480360381019061024d9190612c53565b6107ac565b005b34801561026057600080fd5b5061027b60048036038101906102769190612b9e565b6107c2565b60405161028f989796959493929190612cc3565b60405180910390f35b3480156102a457600080fd5b506102bf60048036038101906102ba9190612b9e565b61093a565b005b3480156102cd57600080fd5b506102d6610b0d565b6040516102e39190612d4f565b60405180910390f35b3480156102f857600080fd5b50610313600480360381019061030e9190612d6a565b610b1a565b005b34801561032157600080fd5b5061033c60048036038101906103379190612c53565b610c1c565b6040516103499190612d4f565b60405180910390f35b34801561035e57600080fd5b5061037960048036038101906103749190612ef2565b610cc5565b005b34801561038757600080fd5b506103a2600480360381019061039d9190612d6a565b610efc565b005b3480156103b057600080fd5b506103cb60048036038101906103c69190612b9e565b610f1c565b6040516103d89190612d4f565b60405180910390f35b3480156103ed57600080fd5b5061040860048036038101906104039190612b9e565b610f92565b6040516104159190612c0c565b60405180910390f35b61043860048036038101906104339190612b9e565b610fa4565b005b34801561044657600080fd5b50610461600480360381019061045c9190612fa5565b611186565b60405161046e9190612d4f565b60405180910390f35b34801561048357600080fd5b5061048c611240565b005b34801561049a57600080fd5b506104a3611254565b6040516104b09190612d4f565b60405180910390f35b3480156104c557600080fd5b506104ce61125a565b6040516104db9190612c0c565b60405180910390f35b3480156104f057600080fd5b506104f9611284565b6040516105069190612b46565b60405180910390f35b34801561051b57600080fd5b5061053660048036038101906105319190612ffe565b611316565b005b34801561054457600080fd5b5061055f600480360381019061055a91906130df565b61132c565b005b34801561056d57600080fd5b5061058860048036038101906105839190612b9e565b611351565b6040516105959190612d4f565b60405180910390f35b3480156105aa57600080fd5b506105c560048036038101906105c09190612b9e565b611369565b6040516105d29190612b46565b60405180910390f35b3480156105e757600080fd5b5061060260048036038101906105fd9190613162565b6113d2565b60405161060f9190612a9b565b60405180910390f35b34801561062457600080fd5b5061063f600480360381019061063a9190612b9e565b611466565b60405161065297969594939291906131a2565b60405180910390f35b34801561066757600080fd5b50610682600480360381019061067d9190612fa5565b6115fa565b005b60007f780e9d63000000000000000000000000000000000000000000000000000000007bffffffffffffffffffffffffffffffffffffffffffffffffffffffff1916827bffffffffffffffffffffffffffffffffffffffffffffffffffffffff191614806106f757506106f682611680565b5b9050919050565b60606000805461070d9061324e565b80601f01602080910402602001604051908101604052809291908181526020018280546107399061324e565b80156107865780601f1061075b57610100808354040283529160200191610786565b820191906000526020600020905b81548152906001019060200180831161076957829003601f168201915b5050505050905090565b600061079b82611762565b506107a5826117ea565b9050919050565b6107be82826107b9611827565b61182f565b5050565b600d6020528060005260406000206000915090508060000154908060010180546107eb9061324e565b80601f01602080910402602001604051908101604052809291908181526020018280546108179061324e565b80156108645780601f1061083957610100808354040283529160200191610864565b820191906000526020600020905b81548152906001019060200180831161084757829003601f168201915b5050505050908060020180546108799061324e565b80601f01602080910402602001604051908101604052809291908181526020018280546108a59061324e565b80156108f25780601f106108c7576101008083540402835291602001916108f2565b820191906000526020600020905b8154815290600101906020018083116108d557829003601f168201915b5050505050908060030154908060040160009054906101000a900473ffffffffffffffffffffffffffffffffffffffff16908060050154908060060154908060070154905088565b610942611841565b6000600d600083815260200190815260200160002090508060040160009054906101000a900473ffffffffffffffffffffffffffffffffffffffff1673ffffffffffffffffffffffffffffffffffffffff163373ffffffffffffffffffffffffffffffffffffffff16146109eb576040517f08c379a00000000000000000000000000000000000000000000000000000000081526004016109e2906132f1565b60405180910390fd5b600081600701548260060154610a019190613340565b905060008111610a46576040517f08c379a0000000000000000000000000000000000000000000000000000000008152600401610a3d906133ce565b60405180910390fd5b8160040160009054906101000a900473ffffffffffffffffffffffffffffffffffffffff1673ffffffffffffffffffffffffffffffffffffffff166108fc829081150290604051600060405180830381858888f19350505050158015610ab0573d6000803e3d6000fd5b503373ffffffffffffffffffffffffffffffffffffffff16837ff440aec6b52895984d061d622e6edeba6210f7c3e059be920663140c084560d783604051610af89190612d4f565b60405180910390a35050610b0a611887565b50565b6000600880549050905090565b600073ffffffffffffffffffffffffffffffffffffffff168273ffffffffffffffffffffffffffffffffffffffff1603610b8c5760006040517f64a0ae92000000000000000000000000000000000000000000000000000000008152600401610b839190612c0c565b60405180910390fd5b6000610ba08383610b9b611827565b611891565b90508373ffffffffffffffffffffffffffffffffffffffff168173ffffffffffffffffffffffffffffffffffffffff1614610c16578382826040517f64283d7b000000000000000000000000000000000000000000000000000000008152600401610c0d939291906133ee565b60405180910390fd5b50505050565b6000610c2783611186565b8210610c6c5782826040517fa57d13dc000000000000000000000000000000000000000000000000000000008152600401610c63929190613425565b60405180910390fd5b600660008473ffffffffffffffffffffffffffffffffffffffff1673ffffffffffffffffffffffffffffffffffffffff168152602001908152602001600020600083815260200190815260200160002054905092915050565b428311610d07576040517f08c379a0000000000000000000000000000000000000000000000000000000008152600401610cfe9061349a565b60405180910390fd5b60008211610d4a576040517f08c379a0000000000000000000000000000000000000000000000000000000008152600401610d4190613506565b60405180910390fd5b60008111610d8d576040517f08c379a0000000000000000000000000000000000000000000000000000000008152600401610d8490613598565b60405180910390fd5b600c6000815480929190610da0906135b8565b9190505550604051806101000160405280600c5481526020018681526020018581526020018481526020013373ffffffffffffffffffffffffffffffffffffffff1681526020018381526020016000815260200182815250600d6000600c548152602001908152602001600020600082015181600001556020820151816001019081610e2c91906137ac565b506040820151816002019081610e4291906137ac565b506060820151816003015560808201518160040160006101000a81548173ffffffffffffffffffffffffffffffffffffffff021916908373ffffffffffffffffffffffffffffffffffffffff16021790555060a0820151816005015560c0820151816006015560e08201518160070155905050600c547f72deeb9ef57375133dcdf3dd5ba7a069d5bb62851a22ce62f0f3bbd7a4343aef86858585604051610eed949392919061387e565b60405180910390a25050505050565b610f178383836040518060200160405280600081525061132c565b505050565b6000610f26610b0d565b8210610f6c576000826040517fa57d13dc000000000000000000000000000000000000000000000000000000008152600401610f63929190613425565b60405180910390fd5b60088281548110610f8057610f7f6138ca565b5b90600052602060002001549050919050565b6000610f9d82611762565b9050919050565b610fac611841565b6000600d60008381526020019081526020016000209050600081600001540361100a576040517f08c379a000000000000000000000000000000000000000000000000000000000815260040161100190613945565b60405180910390fd5b8060050154816006015410611054576040517f08c379a000000000000000000000000000000000000000000000000000000000815260040161104b906139b1565b60405180910390fd5b8060070154341461109a576040517f08c379a000000000000000000000000000000000000000000000000000000000815260040161109190613a1d565b60405180910390fd5b806003015442106110e0576040517f08c379a00000000000000000000000000000000000000000000000000000000081526004016110d790613a89565b60405180910390fd5b600060016110ec610b0d565b6110f69190613aa9565b905061110233826119ae565b82600e60008381526020019081526020016000208190555081600601600081548092919061112f906135b8565b91905055503373ffffffffffffffffffffffffffffffffffffffff1681847f94c5953e15f54d38b82a662bdd5739fc91af3a23d3ef7e67269dfaeee71a813c60405160405180910390a45050611183611887565b50565b60008073ffffffffffffffffffffffffffffffffffffffff168273ffffffffffffffffffffffffffffffffffffffff16036111f95760006040517f89c62b640000000000000000000000000000000000000000000000000000000081526004016111f09190612c0c565b60405180910390fd5b600360008373ffffffffffffffffffffffffffffffffffffffff1673ffffffffffffffffffffffffffffffffffffffff168152602001908152602001600020549050919050565b611248611aa7565b6112526000611b2e565b565b600c5481565b6000600a60009054906101000a900473ffffffffffffffffffffffffffffffffffffffff16905090565b6060600180546112939061324e565b80601f01602080910402602001604051908101604052809291908181526020018280546112bf9061324e565b801561130c5780601f106112e15761010080835404028352916020019161130c565b820191906000526020600020905b8154815290600101906020018083116112ef57829003601f168201915b5050505050905090565b611328611321611827565b8383611bf4565b5050565b611337848484610b1a565b61134b611342611827565b85858585611d63565b50505050565b600e6020528060005260406000206000915090505481565b606061137482611762565b50600061137f611f14565b9050600081511161139f57604051806020016040528060008152506113ca565b806113a984611f2b565b6040516020016113ba929190613b19565b6040516020818303038152906040525b915050919050565b6000600560008473ffffffffffffffffffffffffffffffffffffffff1673ffffffffffffffffffffffffffffffffffffffff16815260200190815260200160002060008373ffffffffffffffffffffffffffffffffffffffff1673ffffffffffffffffffffffffffffffffffffffff16815260200190815260200160002060009054906101000a900460ff16905092915050565b606080600080600080600080600d60008a81526020019081526020016000209050806001018160020182600301548360040160009054906101000a900473ffffffffffffffffffffffffffffffffffffffff168460050154856006015486600701548680546114d49061324e565b80601f01602080910402602001604051908101604052809291908181526020018280546115009061324e565b801561154d5780601f106115225761010080835404028352916020019161154d565b820191906000526020600020905b81548152906001019060200180831161153057829003601f168201915b505050505096508580546115609061324e565b80601f016020809104026020016040519081016040528092919081815260200182805461158c9061324e565b80156115d95780601f106115ae576101008083540402835291602001916115d9565b820191906000526020600020905b8154815290600101906020018083116115bc57829003601f168201915b50505050509550975097509750975097509750975050919395979092949650565b611602611aa7565b600073ffffffffffffffffffffffffffffffffffffffff168173ffffffffffffffffffffffffffffffffffffffff16036116745760006040517f1e4fbdf700000000000000000000000000000000000000000000000000000000815260040161166b9190612c0c565b60405180910390fd5b61167d81611b2e565b50565b60007f80ac58cd000000000000000000000000000000000000000000000000000000007bffffffffffffffffffffffffffffffffffffffffffffffffffffffff1916827bffffffffffffffffffffffffffffffffffffffffffffffffffffffff1916148061174b57507f5b5e139f000000000000000000000000000000000000000000000000000000007bffffffffffffffffffffffffffffffffffffffffffffffffffffffff1916827bffffffffffffffffffffffffffffffffffffffffffffffffffffffff1916145b8061175b575061175a82611ff9565b5b9050919050565b60008061176e83612063565b9050600073ffffffffffffffffffffffffffffffffffffffff168173ffffffffffffffffffffffffffffffffffffffff16036117e157826040517f7e2732890000000000000000000000000000000000000000000000000000000081526004016117d89190612d4f565b60405180910390fd5b80915050919050565b60006004600083815260200190815260200160002060009054906101000a900473ffffffffffffffffffffffffffffffffffffffff169050919050565b600033905090565b61183c83838360016120a0565b505050565b6002600b540361187d576040517f3ee5aeb500000000000000000000000000000000000000000000000000000000815260040160405180910390fd5b6002600b81905550565b6001600b81905550565b60008061189f858585612265565b9050600073ffffffffffffffffffffffffffffffffffffffff168173ffffffffffffffffffffffffffffffffffffffff16036118e3576118de8461247f565b611922565b8473ffffffffffffffffffffffffffffffffffffffff168173ffffffffffffffffffffffffffffffffffffffff16146119215761192081856124c8565b5b5b600073ffffffffffffffffffffffffffffffffffffffff168573ffffffffffffffffffffffffffffffffffffffff16036119645761195f846125b3565b6119a3565b8473ffffffffffffffffffffffffffffffffffffffff168173ffffffffffffffffffffffffffffffffffffffff16146119a2576119a18585612684565b5b5b809150509392505050565b600073ffffffffffffffffffffffffffffffffffffffff168273ffffffffffffffffffffffffffffffffffffffff1603611a205760006040517f64a0ae92000000000000000000000000000000000000000000000000000000008152600401611a179190612c0c565b60405180910390fd5b6000611a2e83836000611891565b9050600073ffffffffffffffffffffffffffffffffffffffff168173ffffffffffffffffffffffffffffffffffffffff1614611aa25760006040517f73c6ac6e000000000000000000000000000000000000000000000000000000008152600401611a999190612c0c565b60405180910390fd5b505050565b611aaf611827565b73ffffffffffffffffffffffffffffffffffffffff16611acd61125a565b73ffffffffffffffffffffffffffffffffffffffff1614611b2c57611af0611827565b6040517f118cdaa7000000000000000000000000000000000000000000000000000000008152600401611b239190612c0c565b60405180910390fd5b565b6000600a60009054906101000a900473ffffffffffffffffffffffffffffffffffffffff16905081600a60006101000a81548173ffffffffffffffffffffffffffffffffffffffff021916908373ffffffffffffffffffffffffffffffffffffffff1602179055508173ffffffffffffffffffffffffffffffffffffffff168173ffffffffffffffffffffffffffffffffffffffff167f8be0079c531659141344cd1fd0a4f28419497f9722a3daafe3b4186f6b6457e060405160405180910390a35050565b600073ffffffffffffffffffffffffffffffffffffffff168273ffffffffffffffffffffffffffffffffffffffff1603611c6557816040517f5b08ba18000000000000000000000000000000000000000000000000000000008152600401611c5c9190612c0c565b60405180910390fd5b80600560008573ffffffffffffffffffffffffffffffffffffffff1673ffffffffffffffffffffffffffffffffffffffff16815260200190815260200160002060008473ffffffffffffffffffffffffffffffffffffffff1673ffffffffffffffffffffffffffffffffffffffff16815260200190815260200160002060006101000a81548160ff0219169083151502179055508173ffffffffffffffffffffffffffffffffffffffff168373ffffffffffffffffffffffffffffffffffffffff167f17307eab39ab6107e8899845ad3d59bd9653f200f220920489ca2b5937696c3183604051611d569190612a9b565b60405180910390a3505050565b60008373ffffffffffffffffffffffffffffffffffffffff163b1115611f0d578273ffffffffffffffffffffffffffffffffffffffff1663150b7a02868685856040518563ffffffff1660e01b8152600401611dc29493929190613b92565b6020604051808303816000875af1925050508015611dfe57506040513d601f19601f82011682018060405250810190611dfb9190613bf3565b60015b611e82573d8060008114611e2e576040519150601f19603f3d011682016040523d82523d6000602084013e611e33565b606091505b506000815103611e7a57836040517f64a0ae92000000000000000000000000000000000000000000000000000000008152600401611e719190612c0c565b60405180910390fd5b805181602001fd5b63150b7a0260e01b7bffffffffffffffffffffffffffffffffffffffffffffffffffffffff1916817bffffffffffffffffffffffffffffffffffffffffffffffffffffffff191614611f0b57836040517f64a0ae92000000000000000000000000000000000000000000000000000000008152600401611f029190612c0c565b60405180910390fd5b505b5050505050565b606060405180602001604052806000815250905090565b606060006001611f3a8461270f565b01905060008167ffffffffffffffff811115611f5957611f58612dc7565b5b6040519080825280601f01601f191660200182016040528015611f8b5781602001600182028036833780820191505090505b509050600082602001820190505b600115611fee578080600190039150507f3031323334353637383961626364656600000000000000000000000000000000600a86061a8153600a8581611fe257611fe1613c20565b5b04945060008503611f99575b819350505050919050565b60007f01ffc9a7000000000000000000000000000000000000000000000000000000007bffffffffffffffffffffffffffffffffffffffffffffffffffffffff1916827bffffffffffffffffffffffffffffffffffffffffffffffffffffffff1916149050919050565b60006002600083815260200190815260200160002060009054906101000a900473ffffffffffffffffffffffffffffffffffffffff169050919050565b80806120d95750600073ffffffffffffffffffffffffffffffffffffffff168273ffffffffffffffffffffffffffffffffffffffff1614155b1561220d5760006120e984611762565b9050600073ffffffffffffffffffffffffffffffffffffffff168373ffffffffffffffffffffffffffffffffffffffff161415801561215457508273ffffffffffffffffffffffffffffffffffffffff168173ffffffffffffffffffffffffffffffffffffffff1614155b8015612167575061216581846113d2565b155b156121a957826040517fa9fbf51f0000000000000000000000000000000000000000000000000000000081526004016121a09190612c0c565b60405180910390fd5b811561220b57838573ffffffffffffffffffffffffffffffffffffffff168273ffffffffffffffffffffffffffffffffffffffff167f8c5be1e5ebec7d5bd14f71427d1e84f3dd0314c0f7b2291e5b200ac8c7c3b92560405160405180910390a45b505b836004600085815260200190815260200160002060006101000a81548173ffffffffffffffffffffffffffffffffffffffff021916908373ffffffffffffffffffffffffffffffffffffffff16021790555050505050565b60008061227184612063565b9050600073ffffffffffffffffffffffffffffffffffffffff168373ffffffffffffffffffffffffffffffffffffffff16146122b3576122b2818486612862565b5b600073ffffffffffffffffffffffffffffffffffffffff168173ffffffffffffffffffffffffffffffffffffffff1614612344576122f56000856000806120a0565b6001600360008373ffffffffffffffffffffffffffffffffffffffff1673ffffffffffffffffffffffffffffffffffffffff168152602001908152602001600020600082825403925050819055505b600073ffffffffffffffffffffffffffffffffffffffff168573ffffffffffffffffffffffffffffffffffffffff16146123c7576001600360008773ffffffffffffffffffffffffffffffffffffffff1673ffffffffffffffffffffffffffffffffffffffff168152602001908152602001600020600082825401925050819055505b846002600086815260200190815260200160002060006101000a81548173ffffffffffffffffffffffffffffffffffffffff021916908373ffffffffffffffffffffffffffffffffffffffff160217905550838573ffffffffffffffffffffffffffffffffffffffff168273ffffffffffffffffffffffffffffffffffffffff167fddf252ad1be2c89b69c2b068fc378daa952ba7f163c4a11628f55a4df523b3ef60405160405180910390a4809150509392505050565b6008805490506009600083815260200190815260200160002081905550600881908060018154018082558091505060019003906000526020600020016000909190919091505550565b60006124d383611186565b90506000600760008481526020019081526020016000205490506000600660008673ffffffffffffffffffffffffffffffffffffffff1673ffffffffffffffffffffffffffffffffffffffff168152602001908152602001600020905082821461257f5760008160008581526020019081526020016000205490508082600085815260200190815260200160002081905550826007600083815260200190815260200160002081905550505b6007600085815260200190815260200160002060009055806000848152602001908152602001600020600090555050505050565b600060016008805490506125c79190613c4f565b90506000600960008481526020019081526020016000205490506000600883815481106125f7576125f66138ca565b5b906000526020600020015490508060088381548110612619576126186138ca565b5b90600052602060002001819055508160096000838152602001908152602001600020819055506009600085815260200190815260200160002060009055600880548061266857612667613c83565b5b6001900381819060005260206000200160009055905550505050565b6000600161269184611186565b61269b9190613c4f565b905081600660008573ffffffffffffffffffffffffffffffffffffffff1673ffffffffffffffffffffffffffffffffffffffff168152602001908152602001600020600083815260200190815260200160002081905550806007600084815260200190815260200160002081905550505050565b600080600090507a184f03e93ff9f4daa797ed6e38ed64bf6a1f010000000000000000831061276d577a184f03e93ff9f4daa797ed6e38ed64bf6a1f010000000000000000838161276357612762613c20565b5b0492506040810190505b6d04ee2d6d415b85acef810000000083106127aa576d04ee2d6d415b85acef810000000083816127a05761279f613c20565b5b0492506020810190505b662386f26fc1000083106127d957662386f26fc1000083816127cf576127ce613c20565b5b0492506010810190505b6305f5e1008310612802576305f5e10083816127f8576127f7613c20565b5b0492506008810190505b612710831061282757612710838161281d5761281c613c20565b5b0492506004810190505b6064831061284a57606483816128405761283f613c20565b5b0492506002810190505b600a8310612859576001810190505b80915050919050565b61286d838383612926565b61292157600073ffffffffffffffffffffffffffffffffffffffff168373ffffffffffffffffffffffffffffffffffffffff16036128e257806040517f7e2732890000000000000000000000000000000000000000000000000000000081526004016128d99190612d4f565b60405180910390fd5b81816040517f177e802f000000000000000000000000000000000000000000000000000000008152600401612918929190613425565b60405180910390fd5b505050565b60008073ffffffffffffffffffffffffffffffffffffffff168373ffffffffffffffffffffffffffffffffffffffff16141580156129de57508273ffffffffffffffffffffffffffffffffffffffff168473ffffffffffffffffffffffffffffffffffffffff16148061299f575061299e84846113d2565b5b806129dd57508273ffffffffffffffffffffffffffffffffffffffff166129c5836117ea565b73ffffffffffffffffffffffffffffffffffffffff16145b5b90509392505050565b6000604051905090565b600080fd5b600080fd5b60007fffffffff0000000000000000000000000000000000000000000000000000000082169050919050565b612a30816129fb565b8114612a3b57600080fd5b50565b600081359050612a4d81612a27565b92915050565b600060208284031215612a6957612a686129f1565b5b6000612a7784828501612a3e565b91505092915050565b60008115159050919050565b612a9581612a80565b82525050565b6000602082019050612ab06000830184612a8c565b92915050565b600081519050919050565b600082825260208201905092915050565b60005b83811015612af0578082015181840152602081019050612ad5565b60008484015250505050565b6000601f19601f8301169050919050565b6000612b1882612ab6565b612b228185612ac1565b9350612b32818560208601612ad2565b612b3b81612afc565b840191505092915050565b60006020820190508181036000830152612b608184612b0d565b905092915050565b6000819050919050565b612b7b81612b68565b8114612b8657600080fd5b50565b600081359050612b9881612b72565b92915050565b600060208284031215612bb457612bb36129f1565b5b6000612bc284828501612b89565b91505092915050565b600073ffffffffffffffffffffffffffffffffffffffff82169050919050565b6000612bf682612bcb565b9050919050565b612c0681612beb565b82525050565b6000602082019050612c216000830184612bfd565b92915050565b612c3081612beb565b8114612c3b57600080fd5b50565b600081359050612c4d81612c27565b92915050565b60008060408385031215612c6a57612c696129f1565b5b6000612c7885828601612c3e565b9250506020612c8985828601612b89565b9150509250929050565b612c9c81612b68565b82525050565b6000612cad82612bcb565b9050919050565b612cbd81612ca2565b82525050565b600061010082019050612cd9600083018b612c93565b8181036020830152612ceb818a612b0d565b90508181036040830152612cff8189612b0d565b9050612d0e6060830188612c93565b612d1b6080830187612cb4565b612d2860a0830186612c93565b612d3560c0830185612c93565b612d4260e0830184612c93565b9998505050505050505050565b6000602082019050612d646000830184612c93565b92915050565b600080600060608486031215612d8357612d826129f1565b5b6000612d9186828701612c3e565b9350506020612da286828701612c3e565b9250506040612db386828701612b89565b9150509250925092565b600080fd5b600080fd5b7f4e487b7100000000000000000000000000000000000000000000000000000000600052604160045260246000fd5b612dff82612afc565b810181811067ffffffffffffffff82111715612e1e57612e1d612dc7565b5b80604052505050565b6000612e316129e7565b9050612e3d8282612df6565b919050565b600067ffffffffffffffff821115612e5d57612e5c612dc7565b5b612e6682612afc565b9050602081019050919050565b82818337600083830152505050565b6000612e95612e9084612e42565b612e27565b905082815260208101848484011115612eb157612eb0612dc2565b5b612ebc848285612e73565b509392505050565b600082601f830112612ed957612ed8612dbd565b5b8135612ee9848260208601612e82565b91505092915050565b600080600080600060a08688031215612f0e57612f0d6129f1565b5b600086013567ffffffffffffffff811115612f2c57612f2b6129f6565b5b612f3888828901612ec4565b955050602086013567ffffffffffffffff811115612f5957612f586129f6565b5b612f6588828901612ec4565b9450506040612f7688828901612b89565b9350506060612f8788828901612b89565b9250506080612f9888828901612b89565b9150509295509295909350565b600060208284031215612fbb57612fba6129f1565b5b6000612fc984828501612c3e565b91505092915050565b612fdb81612a80565b8114612fe657600080fd5b50565b600081359050612ff881612fd2565b92915050565b60008060408385031215613015576130146129f1565b5b600061302385828601612c3e565b925050602061303485828601612fe9565b9150509250929050565b600067ffffffffffffffff82111561305957613058612dc7565b5b61306282612afc565b9050602081019050919050565b600061308261307d8461303e565b612e27565b90508281526020810184848401111561309e5761309d612dc2565b5b6130a9848285612e73565b509392505050565b600082601f8301126130c6576130c5612dbd565b5b81356130d684826020860161306f565b91505092915050565b600080600080608085870312156130f9576130f86129f1565b5b600061310787828801612c3e565b945050602061311887828801612c3e565b935050604061312987828801612b89565b925050606085013567ffffffffffffffff81111561314a576131496129f6565b5b613156878288016130b1565b91505092959194509250565b60008060408385031215613179576131786129f1565b5b600061318785828601612c3e565b925050602061319885828601612c3e565b9150509250929050565b600060e08201905081810360008301526131bc818a612b0d565b905081810360208301526131d08189612b0d565b90506131df6040830188612c93565b6131ec6060830187612bfd565b6131f96080830186612c93565b61320660a0830185612c93565b61321360c0830184612c93565b98975050505050505050565b7f4e487b7100000000000000000000000000000000000000000000000000000000600052602260045260246000fd5b6000600282049050600182168061326657607f821691505b6020821081036132795761327861321f565b5b50919050565b7f4f6e6c79206f7267616e697a65722063616e2077697468647261772066756e6460008201527f7300000000000000000000000000000000000000000000000000000000000000602082015250565b60006132db602183612ac1565b91506132e68261327f565b604082019050919050565b6000602082019050818103600083015261330a816132ce565b9050919050565b7f4e487b7100000000000000000000000000000000000000000000000000000000600052601160045260246000fd5b600061334b82612b68565b915061335683612b68565b925082820261336481612b68565b9150828204841483151761337b5761337a613311565b5b5092915050565b7f4e6f2066756e647320746f207769746864726177000000000000000000000000600082015250565b60006133b8601483612ac1565b91506133c382613382565b602082019050919050565b600060208201905081810360008301526133e7816133ab565b9050919050565b60006060820190506134036000830186612bfd565b6134106020830185612c93565b61341d6040830184612bfd565b949350505050565b600060408201905061343a6000830185612bfd565b6134476020830184612c93565b9392505050565b7f4576656e742064617465206d75737420626520696e2074686520667574757265600082015250565b6000613484602083612ac1565b915061348f8261344e565b602082019050919050565b600060208201905081810360008301526134b381613477565b9050919050565b7f4d7573742068617665207469636b65747320617661696c61626c650000000000600082015250565b60006134f0601b83612ac1565b91506134fb826134ba565b602082019050919050565b6000602082019050818103600083015261351f816134e3565b9050919050565b7f5469636b6574207072696365206d75737420626520677265617465722074686160008201527f6e207a65726f0000000000000000000000000000000000000000000000000000602082015250565b6000613582602683612ac1565b915061358d82613526565b604082019050919050565b600060208201905081810360008301526135b181613575565b9050919050565b60006135c382612b68565b91507fffffffffffffffffffffffffffffffffffffffffffffffffffffffffffffffff82036135f5576135f4613311565b5b600182019050919050565b60008190508160005260206000209050919050565b60006020601f8301049050919050565b600082821b905092915050565b6000600883026136627fffffffffffffffffffffffffffffffffffffffffffffffffffffffffffffffff82613625565b61366c8683613625565b95508019841693508086168417925050509392505050565b6000819050919050565b60006136a96136a461369f84612b68565b613684565b612b68565b9050919050565b6000819050919050565b6136c38361368e565b6136d76136cf826136b0565b848454613632565b825550505050565b600090565b6136ec6136df565b6136f78184846136ba565b505050565b5b8181101561371b576137106000826136e4565b6001810190506136fd565b5050565b601f8211156137605761373181613600565b61373a84613615565b81016020851015613749578190505b61375d61375585613615565b8301826136fc565b50505b505050565b600082821c905092915050565b600061378360001984600802613765565b1980831691505092915050565b600061379c8383613772565b9150826002028217905092915050565b6137b582612ab6565b67ffffffffffffffff8111156137ce576137cd612dc7565b5b6137d8825461324e565b6137e382828561371f565b600060209050601f8311600181146138165760008415613804578287015190505b61380e8582613790565b865550613876565b601f19841661382486613600565b60005b8281101561384c57848901518255600182019150602085019450602081019050613827565b868310156138695784890151613865601f891682613772565b8355505b6001600288020188555050505b505050505050565b600060808201905081810360008301526138988187612b0d565b90506138a76020830186612c93565b6138b46040830185612c93565b6138c16060830184612c93565b95945050505050565b7f4e487b7100000000000000000000000000000000000000000000000000000000600052603260045260246000fd5b7f4576656e7420646f6573206e6f74206578697374000000000000000000000000600082015250565b600061392f601483612ac1565b915061393a826138f9565b602082019050919050565b6000602082019050818103600083015261395e81613922565b9050919050565b7f4e6f207469636b657473206c6566740000000000000000000000000000000000600082015250565b600061399b600f83612ac1565b91506139a682613965565b602082019050919050565b600060208201905081810360008301526139ca8161398e565b9050919050565b7f496e636f7272656374207469636b657420707269636500000000000000000000600082015250565b6000613a07601683612ac1565b9150613a12826139d1565b602082019050919050565b60006020820190508181036000830152613a36816139fa565b9050919050565b7f4576656e742068617320616c72656164792068617070656e6564000000000000600082015250565b6000613a73601a83612ac1565b9150613a7e82613a3d565b602082019050919050565b60006020820190508181036000830152613aa281613a66565b9050919050565b6000613ab482612b68565b9150613abf83612b68565b9250828201905080821115613ad757613ad6613311565b5b92915050565b600081905092915050565b6000613af382612ab6565b613afd8185613add565b9350613b0d818560208601612ad2565b80840191505092915050565b6000613b258285613ae8565b9150613b318284613ae8565b91508190509392505050565b600081519050919050565b600082825260208201905092915050565b6000613b6482613b3d565b613b6e8185613b48565b9350613b7e818560208601612ad2565b613b8781612afc565b840191505092915050565b6000608082019050613ba76000830187612bfd565b613bb46020830186612bfd565b613bc16040830185612c93565b8181036060830152613bd38184613b59565b905095945050505050565b600081519050613bed81612a27565b92915050565b600060208284031215613c0957613c086129f1565b5b6000613c1784828501613bde565b91505092915050565b7f4e487b7100000000000000000000000000000000000000000000000000000000600052601260045260246000fd5b6000613c5a82612b68565b9150613c6583612b68565b9250828203905081811115613c7d57613c7c613311565b5b92915050565b7f4e487b7100000000000000000000000000000000000000000000000000000000600052603160045260246000fdfea2646970667358221220e4ba7e56ad3d1ae1fbe0b8212d4d8211d2116ec6edab1703cf6c35e65f5eea3d64736f6c634300081c0033",
  "linkReferences": {},
  "deployedLinkReferences": {}
}